S013000064656D6F2073797374656D2E73726563A7
S11300000C9434000C9451000C9451000C94510045
S11300100C9451000C949B040C9451000C945100CA
S11300200C9451000C9451000C9451000C94510008
S11300300C9451000C9442040C94D9090C94510072
S11300400C9451000C9451000C9451000C945100E8
S11300500C9451000C9451000C9451000C945100D8
S11300600C9451000C94510011241FBECFEFD8E022
S1130070DEBFCDBF13E0A0E0B1E0E8EAF3E302C0E5
S113008005900D92AC31B107D9F714E0ACE1B3E0BF
S113009001C01D92AC30B107E1F70E9453000C94EB
S11300A0D2190C9400002F923F924F925F926F925C
S11300B07F928F929F92AF92BF92CF92DF92EF92F4
S11300C0FF920F931F93DF93CF93CDB7DEB765975E
S11300D00FB6F894DEBF0FBECDBF0E94F00A0E9497
S11300E05F0420E137E249E150E0CA010197F1F7EA
S11300F021503040D1F70E9451020E949A0B813066
S1130100A9F420E137E249E150E0CA010197F1F78F
S113011021503040D1F720E137E249E150E0CA01F3
S11301200197F1F721503040D1F7A0C180E091E070
S113013064E071E00E94E00D8130A9F420E137E22F
S113014049E150E0CA010197F1F721503040D1F75D
S113015020E137E249E150E0CA010197F1F721506B
S11301603040D1F783C10E942A148130A9F420E1E0
S113017037E249E150E0CA010197F1F721503040DC
S1130180D1F720E137E249E150E0CA010197F1F7E4
S113019021503040D1F76AC180912203909123030A
S11301A00E9406138130A9F420E137E249E150E0CE
S11301B0CA010197F1F721503040D1F720E137E22D
S11301C049E150E0CA010197F1F721503040D1F7DD
S11301D04DC10E94CA0420E137E249E150E0CA015E
S11301E00197F1F721503040D1F70E94E305282F01
S11301F0882309F4FFCF00D000D000D0EDB7FEB7BC
S1130200319686E593E0918380838DE091E093833A
S11302108283248315820E94FA16E4E2F0E080814E
S113022081608083E5E2F0E0808181608083EE2458
S1130230FF248DB79EB706960FB6F8949EBF0FBEE7
S11302408DBF0F2EFCE1CF2EF3E0DF2EF02D0F2E0D
S1130250FEE1AF2EF3E0BF2EF02D0F2EF0E18F2E36
S1130260F7E29F2EF02D09E110E0772473940F2E0E
S1130270F6E54F2EF3E05F2EF02D0F2EF3E12F2E37
S1130280F1E03F2EF02D0F2EF5E06F2EF02DC6017C
S1130290B5010E94940280911E0390911F0342971E
S11302A0C8F480912003813061F4809122039091FD
S11302B02303019690932303809322031092200337
S11302C002C0709221039401C8010197F1F72150F3
S11302D03040D1F780911C0390911D034297C8F4DC
S11302E080912103813061F4809122039091230352
S11302F0019790932303809322031092210302C059
S1130300709220039401C8010197F1F72150304005
S1130310D1F72091220330912303EDB7FEB73A972A
S11303200FB6F894FEBF0FBEEDBF319651824082E6
S11303303382228280911C0390911D0395838483D0
S113034080911E0390911F039783868331872087B2
S11303500E94FA168DB79EB70A960FB6F8949EBF00
S11303600FBE8DBFC2010E946F0B9CE3E916F1041E
S1130370F9F480912203909123030E9406138130A3
S1130380A9F420E137E249E150E0CA010197F1F70D
S113039021503040D1F720E137E249E150E0CA0171
S11303A00197F1F721503040D1F760C0EE24FF24CB
S11303B086E2BE016A5F7F4F0E94AF078823C1F5C2
S11303C0EDB7FEB738970FB6F894FEBF0FBEEDBF7A
S11303D031965182408286E391E0938382838E81B9
S11303E0848315828F81868317820E94FA16EDB763
S11303F0FEB738960FB6F894FEBF0FBEEDBFC2012C
S11304000E946F0BCE0106960E949A08DE01119697
S1130410FE013696862D01900D928150E1F7CE01B2
S1130420019664E048E853E00E940E090E945C08CB
S1130430E5E2F0E080818160808328E833E1C8014F
S11304400197F1F721503040D1F7E5E2F0E08081E7
S11304508E7F808328E833E1C8010197F1F72150AA
S11304603040D1F70894E11CF11C11CF81E090E0F9
S113047065960FB6F894DEBF0FBECDBFCF91DF9166
S11304801F910F91FF90EF90DF90CF90BF90AF90AE
S11304909F908F907F906F905F904F903F902F90A0
S11304A00895DF93CF93CDB7DEB7AAE2B0E0EAE2D6
S11304B0F0E0808188608C93ABE2B0E0EBE2F0E0A6
S11304C08081877F8C93AAE2B0E0EAE2F0E0808149
S11304D08B7F8C93ABE2B0E0EBE2F0E080818B7F2A
S11304E08C93AAE2B0E0EAE2F0E080818F7E8C9304
S11304F0ABE2B0E0EBE2F0E080818F7E8C93A1E888
S1130500B0E0E1E8F0E0808182608C93AFE6B0E097
S1130510EFE6F0E0808181608C93E4E8F0E0118202
S11305201082CF91DF9108950F931F93DF93CF93A0
S1130530CDB7DEB7A2970FB6F894DEBF0FBECDBF1E
S113054098A38F8F7AA369A31E8E1D8E1C8E1B8E7B
S11305501A8E198EABE2B0E0EBE2F0E080818860A5
S11305608C9380E090E0A0E2B1E48D8B9E8BAF8B06
S1130570B88F6D897E898F89988D2BEA3AEA4AEA89
S11305805EE30E942C16DC01CB01898B9A8BAB8B2A
S1130590BC8B69897A898B899C8920E030E040E8AA
S11305A05FE30E94DE1488231CF481E0888B91C0F1
S11305B069897A898B899C8920E030E04FE753E48C
S11305C00E94281618160CF07BC06D897E898F89CD
S11305D0988D20E030E04AE754E40E94E214DC0104
S11305E0CB018C879D87AE87BF876C857D858E8583
S11305F09F8520E030E04AE753E40E942C16DC019A
S1130600CB0188879987AA87BB87688579858A857E
S11306109B8520E030E040E85FE30E94DE148823FD
S11306202CF481E090E09F838E833FC068857985B8
S11306308A859B8520E03FEF4FE757E40E94281608
S113064018164CF56C857D858E859F8520E030E0FD
S113065040E251E40E942C16DC01CB01BC01CD0127
S11306600E944A15DC01CB019F838E830FC089E170
S113067090E09D838C838C819D810197F1F79D830C
S11306808C838E819F8101979F838E838E819F812E
S1130690009769F724C0688579858A859B850E94BF
S11306A04A15DC01CB019F838E838E819F819B83BE
S11306B08A838A819B810197F1F79B838A830FC088
S11306C069897A898B899C890E944A15DC01CB014E
S11306D0888B8889898389818A95F1F78983ABE23C
S11306E0B0E0EBE2F0E08081877F8C93E9E2F0E018
S11306F08081882F90E0847090700097B9F3E4E8CB
S1130700F0E011821082109225031092240355C048
S11307108D8D882321F5E9E2F0E08081882F90E037
S1130720847090700097D9F481E08D8FE4E8F0E054
S1130730008111818091240390912503CC01A0E0D4
S1130740B0E02FEF3FEF40E050E0BC01CD010E944C
S11307508F16DC01CB01800F911F9C8F8B8F8E8DA8
S1130760882321F5E9E2F0E08081882F90E0807110
S113077090700097D9F481E08E8FE4E8F0E0008176
S113078011818091240390912503CC01A0E0B0E075
S11307902FEF3FEF40E050E0BC01CD010E948F16E7
S11307A0DC01CB01800F911F9A8F898F80912403E4
S11307B0909125038530910541F08D8D882309F4AE
S11307C0A7CF8E8D882309F4A3CF8B8D9C8DCC016C
S11307D0A0E0B0E0BC01CD010E947615DC01CB01A4
S11307E0BC01CD012DEC3CEC48EE51E40E94E21436
S11307F0DC01CB01BC01CD0120E030E040E050E45D
S11308000E94E214DC01CB01BC01CD010E944A1517
S1130810DC01CB01E9A1FAA191838083898D9A8DB2
S1130820CC01A0E0B0E0BC01CD010E947615DC0152
S1130830CB01BC01CD012DEC3CEC48EE51E40E940F
S1130840E214DC01CB01BC01CD0120E030E040E04A
S113085050E40E94E214DC01CB01BC01CD010E94F2
S11308604A15DC01CB01EF8DF8A191838083A29618
S11308700FB6F894DEBF0FBECDBFCF91DF911F91AD
S11308800F9108951F920F920FB60F9211248F9318
S11308909F93DF93CF93CDB7DEB7809124039091DC
S11308A0250301969093250380932403CF91DF9130
S11308B09F918F910F900FBE0F901F901895DF930B
S11308C0CF93CDB7DEB7AAE2B0E0EAE2F0E08081F0
S11308D08F778C93A4E2B0E0E4E2F0E0808180645E
S11308E08C93A5E2B0E0E5E2F0E080818F7B8C930D
S11308F0E8E6F0E084E08083EDE6F0E080E88083E1
S1130900109226037894CF91DF910895DF93CF93CB
S1130910CDB7DEB780912603813051F0A5E2B0E077
S1130920E5E2F0E0808180648C9381E0809326038B
S1130930CF91DF9108951F920F920FB60F92112459
S11309402F933F934F935F936F937F938F939F93D3
S1130950AF93BF93EF93FF93DF93CF93CDB7DEB7FE
S1130960E9E2F0E08081882314F40E948604CF91A8
S1130970DF91FF91EF91BF91AF919F918F917F9103
S11309806F915F914F913F912F910F900FBE0F90F8
S11309901F901895DF93CF93CDB7DEB72E970FB680
S11309A0F894DEBF0FBECDBF0E94A209A5E2B0E05D
S11309B0E5E2F0E0808184608C93A4E2B0E0E4E2BC
S11309C0F0E0808182608C93A5E2B0E0E5E2F0E0A3
S11309D0808182608C9380E090E0A8ECB2E48B8705
S11309E09C87AD87BE876B857C858D859E8520E041
S11309F030E04AE753E40E942C16DC01CB018F83DC
S1130A009887A987BA876F81788589859A8520E038
S1130A1030E040E85FE30E94DE1488232CF481E098
S1130A2090E09E838D833FC06F81788589859A8508
S1130A3020E03FEF4FE757E40E94281618164CF5C4
S1130A406B857C858D859E8520E030E040E251E415
S1130A500E942C16DC01CB01BC01CD010E944A1579
S1130A60DC01CB019E838D830FC089E190E09C83E0
S1130A708B838B819C810197F1F79C838B838D8180
S1130A809E8101979E838D838D819E81009769F756
S1130A9014C06F81788589859A850E944A15DC0186
S1130AA0CB019E838D838D819E819A8389838981E5
S1130AB09A810197F1F79A838983A5E2B0E0E5E290
S1130AC0F0E0808184608C930E94D8058AE26DE80E
S1130AD00E948B058BE26EE30E948B058DE26EE132
S1130AE00E948B058CE260E00E948B0585E160E446
S1130AF00E948B0581E16DE30E948B0584E163E034
S1130B000E94F1052E960FB6F894DEBF0FBECDBF3E
S1130B10CF91DF910895DF93CF9300D0CDB7DEB7A7
S1130B2089836A83A5E2B0E0E5E2F0E080818B7F0F
S1130B308C938981882F90E0880F991F8E770E946B
S1130B40C2098A810E94C209A5E2B0E0E5E2F0E0B0
S1130B50808184608C930F900F90CF91DF910895E2
S1130B60DF93CF9300D0CDB7DEB78A83A5E2B0E0A0
S1130B70E5E2F0E080818B7F8C938A81882F90E07E
S1130B80880F991F8E7780680E94C209898380E04C
S1130B900E94C2098983A5E2B0E0E5E2F0E0808129
S1130BA084608C9389810F900F90CF91DF91089589
S1130BB0DF93CF93CDB7DEB781E06FE00E948B0562
S1130BC0CF91DF910895DF93CF930F92CDB7DEB726
S1130BD087E30E94B005898389810F90CF91DF91CB
S1130BE00895DF93CF9300D00F92CDB7DEB78A83F9
S1130BF06B838A810E94B005898399818B81892BBB
S1130C0089838A8169810E948B050F900F900F90D0
S1130C10CF91DF910895DF93CF9300D00F92CDB79A
S1130C20DEB78A836B838A810E94B00589838B81B6
S1130C30982F90958981892389838A8169810E946B
S1130C408B050F900F900F90CF91DF9108950F9324
S1130C501F93DF93CF93CDB7DEB7A1970FB6F89468
S1130C60DEBF0FBECDBF8F8B798F688F5B8F4A8FAE
S1130C703D8F2C8F1F8F0E8F82E090E09E8B8D8B8B
S1130C801C8A1B8A8F89282F30E039A328A388A1C6
S1130C9099A18C30910551F0E8A1F9A1EE30F1054C
S1130CA049F482E18C8B80E18B8B04C087E78C8BC9
S1130CB080E38B8B8C89982F906882E0692F0E9447
S1130CC08B0584E060E80E940B068AE060E80E94DD
S1130CD0F10581E060E00E948B05188A1F8611C02F
S1130CE02F853889888D998DFC01E20FF31F90813F
S1130CF089E0692F0E948B058F8598890196988BCE
S1130D008F872F8538898A8D9B8D2817390744F35F
S1130D1081E06F890E948B058F898C3021F48DE0EE
S1130D2060E80E94F10589E190E0988B8F8780E06C
S1130D3090E0A0E8BFE38B879C87AD87BE876B8577
S1130D407C858D859E8520E030E04AE753E40E944F
S1130D502C16DC01CB018F839887A987BA876F8112
S1130D60788589859A8520E030E040E85FE30E9439
S1130D70DE1488232CF481E090E09E838D833FC0B1
S1130D806F81788589859A8520E03FEF4FE757E4A6
S1130D900E94281618164CF56B857C858D859E85DA
S1130DA020E030E040E251E40E942C16DC01CB014B
S1130DB0BC01CD010E944A15DC01CB019E838D83C9
S1130DC00FC089E190E09C838B838B819C81019788
S1130DD0F1F79C838B838D819E8101979E838D8304
S1130DE08D819E81009769F714C06F81788589850C
S1130DF09A850E944A15DC01CB019E838D838D81E7
S1130E009E819A83898389819A810197F1F79A83D4
S1130E10898384E00E94B005898B8F859889019726
S1130E20988B8F878F859889009769F08989882F97
S1130E3090E081709070009731F489899B898923AF
S1130E40882309F474CF8DE060E80E940B068F8537
S1130E509889009709F476C086E00E94B005882F2F
S1130E6090E08B719070009709F068C01E8A1D8A0B
S1130E7099898C898923882F90E0817090708823C8
S1130E8021F081E090E09E8B8D8B8F898C3009F06E
S1130E9059C08AE00E94B005898B8CE00E94B0059D
S1130EA087708A8B8A898823A9F08989882F90E0A2
S1130EB001979C01220F331F220F331F220F331F70
S1130EC08A89882F90E0820F931FEE8DFF8D918386
S1130ED080830DC08989882F90E0880F991F880F1F
S1130EE0991F880F991FEE8DFF8D918380838989C7
S1130EF0882311F481E0898B8989813110F080E1A4
S1130F00898B188A1F8611C02F8538898C8D9D8DF9
S1130F108C01020F131F89E00E94B005F801808341
S1130F208F8598890196988B8F878989282F30E03F
S1130F308F859889821793073CF304C082E090E080
S1130F409E8B8D8B8D899E89A1960FB6F894DEBFFA
S1130F500FBECDBFCF91DF911F910F9108950F93D5
S1130F601F93DF93CF93CDB7DEB727970FB6F894CF
S1130F70DEBF0FBECDBF8D837F836E838DE067E0C0
S1130F800E948B05EE81FF818D8180832E813F81BC
S1130F90EE81FF81DE0113968CE0B90141E050E05F
S1130FA09F018D010E9427069A83898389819A81F2
S1130FB0009729F48B819C818031910521F082E096
S1130FC090E09A83898389819A8127960FB6F89451
S1130FD0DEBF0FBECDBFCF91DF911F910F9108955A
S1130FE00F931F93DF93CF93CDB7DEB729970FB637
S1130FF0F894DEBF0FBECDBF9D838C837F836E8349
S11310005987488785E064E00E940B068AE060E81F
S11310100E94F1051B821A8211C02A813B818C81B6
S11310209D81FC01E20FF31F908189E0692F0E94EA
S11310308B058A819B8101969B838A832A813B81CC
S11310408E819F812817390744F381E063E00E9471
S11310508B058FEF90E09B838A8385E00E94B00527
S113106089838A819B8101979B838A838A819B815F
S1131070009739F08981882F90E0847090700097F0
S113108061F382E20E94B005E885F9858083888552
S113109099858C010F5F1F4F81E20E94B005F80112
S11310A0808329960FB6F894DEBF0FBECDBFCF91D3
S11310B0DF911F910F9108950F931F93DF93CF93A7
S11310C0CDB7DEB728970FB6F894DEBF0FBECDBFFD
S11310D080E58D831E829E012B5F3F4FCE010596D6
S11310E0AC014E5F5F4FC90162E070E00E94F007FF
S11310F088E068E00E940B069E012B5F3F4FFE01D3
S11311003596DE0113968CE0B90144E050E09F016E
S11311108D010E9427069A83898389819A81289662
S11311200FB6F894DEBF0FBECDBFCF91DF911F91F4
S11311300F9108950F931F93DF93CF93CDB7DEB72D
S113114029970FB6F894DEBF0FBECDBF9987888765
S113115019828DE060E00E948B05E885F98583E9BA
S1131160808388859985FC01319680E28083DE0145
S1131170169628853985E885F9858CE0B90142E021
S113118050E09F018D010E9427069D838C838E81F0
S11311909F819695879596958795969587959F8334
S11311A08E838C819D81009761F51B821A8210C009
S11311B0288539858A819B81F901E80FF91F90817F
S11311C08981892789838A819B8101969B838A836C
S11311D08E819F819C01215030408A819B8182179E
S11311E0930730F3288539858A819B81F901E80FBB
S11311F0F91F90818981981721F082E090E09D8306
S11312008C838C819D8129960FB6F894DEBF0FBE26
S1131210CDBFCF91DF911F910F910895DF93CF93AD
S1131220CDB7DEB72E970FB6F894DEBF0FBECDBF95
S11312309D838C836E8358874F832DB73EB73E873B
S11312402D878DB79EB79A8789878E81882F90E0E6
S113125001962DB73EB7281B390B0FB6F8943EBF45
S11312600FBE2DBF8DB79EB701969C878B878B854C
S11312709C8500969C878B872B853C853B832A83A2
S1131280198232C04F8158858981282F30E0C901E5
S1131290880F991F820F931F480F591F8981282F88
S11312A030E08C819D81FC01E20FF31F8081282FA7
S11312B030E000D000D000D0EDB7FEB731965183B6
S11312C0408381E691E093838283358324830E9463
S11312D0FA168DB79EB706960FB6F8949EBF0FBE4A
S11312E08DBF89818F5F898399818E81981750F290
S11312F08981282F30E0C901880F991F820F931F1D
S1131300815089838981282F30E08F819885FC0161
S1131310E20FF31F108229853A850FB6F8943EBF79
S11313200FBE2DBF8D859E850FB6F8949EBF0FBE50
S11313308DBF2E960FB6F894DEBF0FBECDBFCF91F2
S1131340DF910895DF93CF93CDB7DEB7A4E2B0E089
S1131350E4E2F0E0808184608C93ECE4F0E080E1EE
S11313608083ACE4B0E0ECE4F0E0808180648C93B2
S1131370A4E2B0E0E4E2F0E080818C628C93CF914F
S1131380DF910895DF93CF930F92CDB7DEB78983B2
S1131390EEE4F0E0898180830000EDE4F0E08081F8
S11313A08823DCF7EEE4F0E080810F90CF91DF91A9
S11313B008951F920F920FB60F9211242F933F930B
S11313C08F939F93AF93BF93EF93FF93DF93CF9349
S11313D000D00F92CDB7DEB780914F038130D1F5A5
S11313E080915003898389818150898389818823ED
S11313F071F580915203909153038170907088230A
S113140041F0A8E2B0E0E8E2F0E0808182608C93F1
S113141007C0A8E2B0E0E8E2F0E080818D7F8C9321
S1131420809152039091530396958795909353031B
S11314308093520383E08983809151038150809388
S1131440510380915103882311F410924F03898131
S11314508093500380914D03882309F072C08091DA
S11314602B03882329F18091290381508093290338
S113147080912903882309F064C010922B031092F1
S11314804E0380914C03282F30E080912703F9010B
S1131490E45DFC4F808380914C038F5F80934C0309
S11314A080914C03803208F44CC010924C0349C024
S11314B080914E038823B9F4E6E2F0E080818170E4
S11314C08B838B818823E9F581E080934E0310920E
S11314D0270384E08093290388E08093280381E034
S11314E080932A032EC080912903898389818150A6
S11314F089838981882311F583E08983E6E2F0E01A
S1131500808181708A838A81882339F080912703BE
S113151090912A03892B8093270380912A03880FB3
S113152080932A038091280381508093280380911B
S11315302803882319F481E080932B038981809305
S113154029030F900F900F90CF91DF91FF91EF91AE
S1131550BF91AF919F918F913F912F910F900FBEAB
S11315600F901F901895DF93CF93CDB7DEB7A7E206
S1131570B0E0E7E2F0E0808182608C93A7E2B0E023
S1131580E7E2F0E080818E7F8C93CF91DF91089524
S1131590DF93CF930F92CDB7DEB7EFE5F0E0808114
S11315A08983F894E7E4F0E081E28083E4E4F0E006
S11315B082E08083E5E4F0E082E08083AEE6B0E0A0
S11315C0EEE6F0E0808182608C93E6E4F0E0108245
S11315D0EFE5F0E0898180830F90CF91DF9108954A
S11315E0DF93CF93CDB7DEB710924F0310924E0323
S11315F010924D03A8E2B0E0E8E2F0E0808182605E
S11316008C930E94B30A0E94C80ACF91DF91089577
S1131610DF93CF9300D000D0CDB7DEB79C838B830C
S11316208B819C81CC01A0E0B0E0880F991FAA1F98
S1131630BB1F880F991FAA1FBB1F880F991FAA1FC2
S1131640BB1F880F991FAA1FBB1F9C01AD0180E01F
S113165092E1AAE7B0E0BC01CD010E94AE16DA0126
S1131660C90101979A838983E5ECF0E089819A8125
S1131670892F99278083E4ECF0E089818083E2EC70
S1131680F0E086E08083A1ECB0E0E1ECF0E0808162
S113169080688C93A1ECB0E0E1ECF0E0808188619B
S11316A08C930F900F900F900F90CF91DF9108952E
S11316B0DF93CF930F92CDB7DEB78983E0ECF0E0F0
S11316C08081882F90E0807290700097B9F3E6ECE7
S11316D0F0E0898180830F90CF91DF910895DF93AB
S11316E0CF9300D000D0CDB7DEB79C838B831A8212
S11316F019820FC029813A818B819C81FC01E20F00
S1131700F31F80810E94580B89819A8101969A83E4
S1131710898329813A818B819C81FC01E20FF31F2B
S11317208081882339F70F900F900F900F90CF91FD
S1131730DF910895DF93CF9300D0CDB7DEB784E96E
S113174093E00E946F0C80E895E20E94080B0E94CF
S1131750C60B8130910529F481E090E09A83898356
S11317600EC00E94830C0E942C0D8130910529F437
S113177081E090E09A83898302C01A821982898168
S11317809A810F900F90CF91DF910895DF93CF93BB
S1131790CDB7DEB760970FB6F894DEBF0FBECDBFEE
S11317A084E993E00E946F0C85E691E00E946F0B40
S11317B080E090E0AAE7B4E48B879C87AD87BE877E
S11317C06B857C858D859E8520E030E04AEF54E46E
S11317D00E942C16DC01CB018F839887A987BA87D6
S11317E06F81788589859A8520E030E040E85FE361
S11317F00E94DE1488232CF481E090E09E838D8384
S11318003FC06F81788589859A8520E03FEF4FE757
S113181057E40E94281618164CF56B857C858D8537
S11318209E8520E030E040E251E40E942C16DC0169
S1131830CB01BC01CD010E944A15DC01CB019E8382
S11318408D830FC088EC90E09C838B838B819C817B
S11318500197F1F79C838B838D819E8101979E83F1
S11318608D838D819E81009769F714C06F8178857F
S113187089859A850E944A15DC01CB019E838D835C
S11318808D819E819A83898389819A810197F1F759
S11318909A83898384E993E02AE033E0B9010E94C2
S11318A0E016009739F01092550310925403188AE9
S11318B01F860AC081E090E09093550380935403FF
S11318C081E090E0988B8F878F85988960960FB61A
S11318D0F894DEBF0FBECDBFCF91DF910895DF93A3
S11318E0CF9300D0CDB7DEB79A83898389819A815B
S11318F060E070E044E650E00E94D0160F900F9034
S1131900CF91DF910895DF93CF93CDB7DEB7609782
S11319100FB6F894DEBF0FBECDBF84E993E00E94FA
S11319206F0C8AE691E00E946F0B80E090E0AAE7DA
S1131930B4E48B879C87AD87BE876B857C858D855A
S11319409E8520E030E04AEF54E40E942C16DC012E
S1131950CB018F839887A987BA876F81788589851A
S11319609A8520E030E040E85FE30E94DE1488239B
S11319702CF481E090E09E838D833FC06F81788555
S113198089859A8520E03FEF4FE757E40E942816A7
S113199018164CF56B857C858D859E8520E030E09E
S11319A040E251E40E942C16DC01CB01BC01CD01C4
S11319B00E944A15DC01CB019E838D830FC088EC05
S11319C090E09C838B838B819C810197F1F79C83AE
S11319D08B838D819E8101979E838D838D819E81D2
S11319E0009769F714C06F81788589859A850E946C
S11319F04A15DC01CB019E838D838D819E819A8360
S1131A00898389819A810197F1F79A83898384E98B
S1131A1093E02AE033E0B9010E94E016009739F020
S1131A201092550310925403188A1F860AC082E04C
S1131A3090E0909355038093540381E090E0988B59
S1131A408F878F85988960960FB6F894DEBF0FBE96
S1131A50CDBFCF91DF910895DF93CF93CDB7DEB79C
S1131A6060970FB6F894DEBF0FBECDBF84E993E054
S1131A700E946F0C8091540390915503009729F0B4
S1131A8081E090E0988B8F8790C081E791E00E947D
S1131A906F0B80E090E0AAE7B4E48B879C87AD8766
S1131AA0BE876B857C858D859E8520E030E04AEF7E
S1131AB054E40E942C16DC01CB018F839887A987FC
S1131AC0BA876F81788589859A8520E030E040E87F
S1131AD05FE30E94DE1488232CF481E090E09E836F
S1131AE08D833FC06F81788589859A8520E03FEF9B
S1131AF04FE757E40E94281618164CF56B857C8531
S1131B008D859E8520E030E040E251E40E942C1651
S1131B10DC01CB01BC01CD010E944A15DC01CB01E3
S1131B209E838D830FC088EC90E09C838B838B8194
S1131B309C810197F1F79C838B838D819E81019712
S1131B409E838D838D819E81009769F714C06F8178
S1131B50788589859A850E944A15DC01CB019E838C
S1131B608D838D819E819A83898389819A8101974E
S1131B70F1F79A83898384E993E02AE033E0B90199
S1131B800E94E016009739F0109255031092540306
S1131B90188A1F860AC083E090E0909355038093CF
S1131BA0540381E090E0988B8F878F8598896096A5
S1131BB00FB6F894DEBF0FBECDBFCF91DF9108956D
S1131BC00F931F93DF93CF93CDB7DEB7CE5BD04097
S1131BD00FB6F894DEBF0FBECDBFFE01E754FF4F32
S1131BE091838083FE01E554FF4F7183608384E910
S1131BF093E00E946F0C80915403909155030097D9
S1131C0049F021E030E0C354DF4F39832883CD5BB2
S1131C10D0405BC3CE018B5A9F4FEDB7FEB73897C8
S1131C200FB6F894FEBF0FBEEDBFADB7BEB71196A9
S1131C3011969C938E938FE791E013969C938E93C9
S1131C401297FE01E754FF4F8081918115969C9372
S1131C508E931497FE01E554FF4F8081918117966E
S1131C609C938E9316970E94FA162DB73EB7285F61
S1131C703F4F0FB6F8943EBF0FBE2DBFCE018B5A17
S1131C809F4F0E946F0BFE01EF5AFF4F80E090E0E0
S1131C90AAE7B4E480839183A283B3838E01035BB8
S1131CA01F4FFE01EF5AFF4F608171818281938142
S1131CB020E030E04AEF54E40E942C16DC01CB0112
S1131CC0F80180839183A283B383FE01E35BFF4F1A
S1131CD0608171818281938120E030E040E85FE39C
S1131CE00E94DE14882344F4FE01E55BFF4F81E08B
S1131CF090E09183808364C0FE01E35BFF4F6081C9
S1131D0071818281938120E03FEF4FE757E40E9485
S1131D10281618160CF043C0FE01EF5AFF4F6081DD
S1131D2071818281938120E030E040E251E40E949D
S1131D302C16DC01CB018E01055B1F4FBC01CD01CC
S1131D400E944A15DC01CB01F801918380831FC0F6
S1131D50FE01E75BFF4F88EC90E091838083FE01F6
S1131D60E75BFF4F808191810197F1F7FE01E75B0B
S1131D70FF4F91838083DE01A55BBF4FFE01E55BCE
S1131D80FF4F80819181019711969C938E93FE0160
S1131D90E55BFF4F808191810097D1F627C08E01CA
S1131DA0055B1F4FFE01E35BFF4F60817181828100
S1131DB093810E944A15DC01CB01F8019183808351
S1131DC0DE01A95BBF4FFE01E55BFF4F808191817E
S1131DD08D939C93FE01E95BFF4F80819181019774
S1131DE0F1F7FE01E95BFF4F91838083FE01ED5B18
S1131DF0FF4F80E090E0AAE7B4E480839183A2835C
S1131E00B3838E01015C1F4FFE01ED5BFF4F6081C8
S1131E1071818281938120E030E04AEF54E40E9492
S1131E202C16DC01CB01F80180839183A283B38358
S1131E30FE01FF96608171818281938120E030E010
S1131E4040E85FE30E94DE1488232CF481E090E0F4
S1131E509EAF8DAF46C0FE01FF9660817181828185
S1131E60938120E03FEF4FE757E40E9428161816AD
S1131E7064F5FE01ED5BFF4F608171818281938186
S1131E8020E030E040E251E40E942C16DC01CB015A
S1131E90BC01CD010E944A15DC01CB019EAF8DAF80
S1131EA00FC088EC90E09CAF8BAF8BAD9CAD0197DD
S1131EB0F1F79CAF8BAF8DAD9EAD01979EAF8DAF0B
S1131EC08DAD9EAD009769F716C0FE01FF96608147
S1131ED07181828193810E944A15DC01CB019EAFFE
S1131EE08DAF8DAD9EAD9AAF89AF89AD9AAD019797
S1131EF0F1F79AAF89AF80E090E0AAE7B4E48DAB44
S1131F009EABAFABB8AF6DA97EA98FA998AD20E009
S1131F1030E04AEF54E40E942C16DC01CB0189AB7B
S1131F209AABABABBCAB69A97AA98BA99CA920E0FD
S1131F3030E040E85FE30E94DE1488232CF481E063
S1131F4090E098AB8FA73FC069A97AA98BA99CA9F7
S1131F5020E03FEF4FE757E40E94281618164CF58F
S1131F606DA97EA98FA998AD20E030E040E251E44C
S1131F700E942C16DC01CB01BC01CD010E944A1544
S1131F80DC01CB0198AB8FA70FC088EC90E09EA733
S1131F908DA78DA59EA50197F1F79EA78DA78FA567
S1131FA098A9019798AB8FA78FA598A9009769F76F
S1131FB014C069A97AA98BA99CA90E944A15DC01BD
S1131FC0CB0198AB8FA78FA598A99CA78BA78BA5AE
S1131FD09CA50197F1F79CA78BA780E090E0AAE766
S1131FE0B4E48FA398A7A9A7BAA76FA178A589A5D8
S1131FF09AA520E030E04AEF54E40E942C16DC015C
S1132000CB018BA39CA3ADA3BEA36BA17CA18DA18B
S11320109EA120E030E040E85FE30E94DE148823C4
S11320202CF481E090E09AA389A33FC06BA17CA12A
S11320308DA19EA120E03FEF4FE757E40E942816B0
S113204018164CF56FA178A589A59AA520E030E073
S113205040E251E40E942C16DC01CB01BC01CD010D
S11320600E944A15DC01CB019AA389A30FC088EC16
S113207090E098A38F8F8F8D98A10197F1F798A383
S11320808F8F89A19AA101979AA389A389A19AA163
S1132090009769F714C06BA17CA18DA19EA10E9439
S11320A04A15DC01CB019AA389A389A19AA19E8F29
S11320B08D8F8D8D9E8D0197F1F79E8F8D8F80E092
S11320C090E0AAE7B4E4898F9A8FAB8FBC8F698DB7
S11320D07A8D8B8D9C8D20E030E04AEF54E40E9491
S11320E02C16DC01CB018D8B9E8BAF8BB88F6D8949
S11320F07E898F89988D20E030E040E85FE30E947C
S1132100DE1488232CF481E090E09C8B8B8B3FC001
S11321106D897E898F89988D20E03FEF4FE757E4E2
S11321200E94281618164CF5698D7A8D8B8D9C8D1E
S113213020E030E040E251E40E942C16DC01CB01A7
S1132140BC01CD010E944A15DC01CB019C8B8B8B19
S11321500FC088EC90E09A8B898B89899A890197C2
S1132160F1F79A8B898B8B899C8901979C8B8B8B3C
S11321708B899C89009769F714C06D897E898F8942
S1132180988D0E944A15DC01CB019C8B8B8B8B892B
S11321909C89988B8F878F8598890197F1F7988B05
S11321A08F8780E090E0AAE7B4E48B879C87AD87B3
S11321B0BE876B857C858D859E8520E030E04AEF67
S11321C054E40E942C16DC01CB018F839887A987E5
S11321D0BA876F81788589859A8520E030E040E868
S11321E05FE30E94DE1488232CF481E090E09E8358
S11321F08D833FC06F81788589859A8520E03FEF84
S11322004FE757E40E94281618164CF56B857C8519
S11322108D859E8520E030E040E251E40E942C163A
S1132220DC01CB01BC01CD010E944A15DC01CB01CC
S11322309E838D830FC088EC90E09C838B838B817D
S11322409C810197F1F79C838B838D819E810197FB
S11322509E838D838D819E81009769F714C06F8161
S1132260788589859A850E944A15DC01CB019E8375
S11322708D838D819E819A83898389819A81019737
S1132280F1F79A83898384E993E02AE033E0B90182
S11322900E94E016009759F01092550310925403CF
S11322A0C354DF4F19821882CD5BD0400EC084E046
S11322B090E0909355038093540321E030E0C3549D
S11322C0DF4F39832883CD5BD040C354DF4F8881EF
S11322D09981CD5BD040C254DF4F0FB6F894DEBF76
S11322E00FBECDBFCF91DF911F910F910895DF9362
S11322F0CF93CDB7DEB760970FB6F894DEBF0FBEAD
S1132300CDBF84E993E00E946F0C809154039091B7
S11323105503009729F081E090E0988B8F8799C04E
S11323208DE492E00E946F0B80E090E0AAE7B4E4B1
S11323308B879C87AD87BE876B857C858D859E85C5
S113234020E030E04AEF54E40E942C16DC01CB017B
S11323508F839887A987BA876F81788589859A85BD
S113236020E030E040E85FE30E94DE1488232CF490
S113237081E090E09E838D833FC06F81788589855D
S11323809A8520E03FEF4FE757E40E94281618167D
S11323904CF56B857C858D859E8520E030E040E2A0
S11323A051E40E942C16DC01CB01BC01CD010E943A
S11323B04A15DC01CB019E838D830FC088EC90E02D
S11323C09C838B838B819C810197F1F79C838B8306
S11323D08D819E8101979E838D838D819E8100973F
S11323E069F714C06F81788589859A850E944A159A
S11323F0DC01CB019E838D838D819E819A838983A9
S113240089819A810197F1F79A83898384E993E01A
S11324102AE033E0B9010E94E016009749F484E908
S113242093E022E133E0B9010E94E016009739F00D
S11324301092550310925403188A1F860AC085E02F
S113244090E0909355038093540381E090E0988B3F
S11324508F878F85988960960FB6F894DEBF0FBE7C
S1132460CDBFCF91DF910895DF93CF93CDB7DEB782
S1132470A6970FB6F894DEBF0FBECDBF9CA38BA367
S113248084E993E00E946F0C80915403909155036A
S1132490009729F081E090E09EA38DA3ACC0CE010B
S11324A00F9600D000D000D0EDB7FEB731969183DF
S11324B0808389E792E0938382838BA19CA1958397
S11324C084830E94FA168DB79EB706960FB6F894C9
S11324D09EBF0FBE8DBFCE010F960E946F0B80E092
S11324E090E0AAE7B4E48B879C87AD87BE876B85B1
S11324F07C858D859E8520E030E04AEF54E40E947F
S11325002C16DC01CB018F839887A987BA876F814A
S1132510788589859A8520E030E040E85FE30E9471
S1132520DE1488232CF481E090E09E838D833FC0E9
S11325306F81788589859A8520E03FEF4FE757E4DE
S11325400E94281618164CF56B857C858D859E8512
S113255020E030E040E251E40E942C16DC01CB0183
S1132560BC01CD010E944A15DC01CB019E838D8301
S11325700FC088EC90E09C838B838B819C810197B6
S1132580F1F79C838B838D819E8101979E838D833C
S11325908D819E81009769F714C06F817885898544
S11325A09A850E944A15DC01CB019E838D838D811F
S11325B09E819A83898389819A810197F1F79A830D
S11325C0898384E993E02AE033E0B9010E94E016AC
S11325D0009739F010925503109254031EA21DA2C5
S11325E00AC086E090E0909355038093540381E001
S11325F090E09EA38DA38DA19EA1A6960FB6F894FC
S1132600DEBF0FBECDBFCF91DF910895DF93CF938F
S1132610CDB7DEB7C85AD0400FB6F894DEBF0FBEB0
S1132620CDBFFE01EB55FF4F91838083809154030E
S113263090915503009749F021E030E0C955DF4FF0
S113264039832883C75AD040F5C0CE010F962DB7E1
S11326503EB7285030400FB6F8943EBF0FBE2DBF92
S1132660ADB7BEB7119611969C938E938AE892E00B
S113267013969C938E93129785EE92E015969C93F5
S11326808E931497FE01EB55FF4F8081918117962D
S11326909C938E9316970E94FA168DB79EB7089650
S11326A00FB6F8949EBF0FBE8DBF0E947711813084
S11326B0910549F421E030E0C955DF4F398328837F
S11326C0C75AD040B7C0CE010F960E94D7160E94B9
S11326D034128130910549F481E090E0C955DF4F0F
S11326E099838883C75AD040A5C084E993E00E94A7
S11326F06F0CCE010F960E946F0B80E090E0AAE76A
S1132700B4E48B879C87AD87BE876B857C858D857C
S11327109E8520E030E04AEF54E40E942C16DC0150
S1132720CB018F839887A987BA876F81788589853C
S11327309A8520E030E040E85FE30E94DE148823BD
S11327402CF481E090E09E838D833FC06F81788577
S113275089859A8520E03FEF4FE757E40E942816C9
S113276018164CF56B857C858D859E8520E030E0C0
S113277040E251E40E942C16DC01CB01BC01CD01E6
S11327800E944A15DC01CB019E838D830FC088EC27
S113279090E09C838B838B819C810197F1F79C83D0
S11327A08B838D819E8101979E838D838D819E81F4
S11327B0009769F714C06F81788589859A850E948E
S11327C04A15DC01CB019E838D838D819E819A8382
S11327D0898389819A810197F1F79A83898384E9AE
S11327E093E02DE033E0B9010E94E016009749F42C
S11327F084E993E02AE033E0B9010E94E0160097EF
S113280059F01092550310925403C955DF4F1982A1
S11328101882C75AD0400EC087E090E090935503C9
S11328208093540321E030E0C955DF4F3983288376
S1132830C75AD040C955DF4F88819981C75AD040C3
S1132840C855DF4F0FB6F894DEBF0FBECDBFCF9192
S1132850DF910895DF93CF93CDB7DEB760970FB6BE
S1132860F894DEBF0FBECDBF84E993E00E946F0CE5
S11328708091540390915503009729F081E090E0F2
S1132880988B8F8790C086EF92E00E946F0B80E058
S113289090E0AAE7B4E48B879C87AD87BE876B85FD
S11328A07C858D859E8520E030E04AEF54E40E94CB
S11328B02C16DC01CB018F839887A987BA876F8197
S11328C0788589859A8520E030E040E85FE30E94BE
S11328D0DE1488232CF481E090E09E838D833FC036
S11328E06F81788589859A8520E03FEF4FE757E42B
S11328F00E94281618164CF56B857C858D859E855F
S113290020E030E040E251E40E942C16DC01CB01CF
S1132910BC01CD010E944A15DC01CB019E838D834D
S11329200FC088EC90E09C838B838B819C81019702
S1132930F1F79C838B838D819E8101979E838D8388
S11329408D819E81009769F714C06F817885898590
S11329509A850E944A15DC01CB019E838D838D816B
S11329609E819A83898389819A810197F1F79A8359
S1132970898384E993E02AE133E0B9010E94E016F7
S1132980009739F01092550310925403188A1F8649
S11329900AC088E090E0909355038093540381E04B
S11329A090E0988B8F878F85988960960FB6F894FE
S11329B0DEBF0FBECDBFCF91DF910895D4D008F410
S11329C081E008950CD00AC102D140F0F9D030F072
S11329D021F45F3F19F0EBC0511134C1EEC00FD1A7
S11329E098F39923C9F35523B1F3951B550BBB27D2
S11329F0AA2762177307840738F09F5F5F4F220F7F
S1132A00331F441FAA1FA9F333D00E2E3AF0E0E877
S1132A1030D091505040E695001CCAF729D0FE2FC3
S1132A2027D0660F771F881FBB1F26173707480755
S1132A30AB07B0E809F0BB0B802DBF01FF2793580B
S1132A405F4F2AF09E3F510568F0B1C0FBC05F3F65
S1132A50ECF3983EDCF3869577956795B795F795F3
S1132A609F5FC9F7880F911D9695879597F90895EB
S1132A70E1E0660F771F881FBB1F62177307840787
S1132A80BA0720F0621B730B840BBA0BEE1F88F796
S1132A90E0950895BCD088F09F5790F0B92F9927FE
S1132AA0B751A0F0D1F0660F771F881F991F1AF055
S1132AB0BA95C9F712C0B13081F0C3D0B1E008951E
S1132AC0C0C0672F782F8827B85F39F0B93FCCF39F
S1132AD0869577956795B395D9F73EF4909580954B
S1132AE0709561957F4F8F4F9F4F0895E89409C06B
S1132AF097FB3EF490958095709561957F4F8F4F2D
S1132B009F4F9923A9F0F92F96E9BB279395F69542
S1132B10879577956795B795F111F8CFFAF4BB0FC0
S1132B2011F460FF1BC06F5F7F4F8F4F9F4F16C024
S1132B30882311F096E911C0772321F09EE8872FAE
S1132B40762F05C0662371F096E8862F70E060E06A
S1132B502AF09A95660F771F881FDAF7880F9695E3
S1132B60879597F90895990F0008550FAA0BE0E887
S1132B70FEEF16161706E807F907C0F0121613063B
S1132B80E407F50798F0621B730B840B950B39F47B
S1132B900A2661F0232B242B252B21F408950A26E1
S1132BA009F4A140A6958FEF811D811D089597F921
S1132BB09F6780E870E060E008959FEF80EC0895DF
S1132BC000240A9416161706180609060895002408
S1132BD00A9412161306140605060895092E039482
S1132BE0000C11F4882352F0BB0F40F4BF2B11F4F6
S1132BF060FF04C06F5F7F4F8F4F9F4F089557FD55
S1132C009058440F551F59F05F3F71F04795880F56
S1132C1097FB991F61F09F3F79F0879508951216ED
S1132C2013061406551FF2CF4695F1DF08C0161699
S1132C3017061806991FF1CF86957105610508944A
S1132C400895E894BB2766277727CB0197F9089561
S1132C508ADF08F48FEF08950BD0C0CFB1DF28F0DE
S1132C60B6DF18F0952309F0A2CFA7CF1124EACF3D
S1132C70C6DFA0F3959FD1F3950F50E0551F629FD7
S1132C80F001729FBB27F00DB11D639FAA27F00DC1
S1132C90B11DAA1F649F6627B00DA11D661F829FE8
S1132CA02227B00DA11D621F739FB00DA11D621FCD
S1132CB0839FA00D611D221F749F3327A00D611DEA
S1132CC0231F849F600D211D822F762F6A2F1124CC
S1132CD09F5750408AF0E1F088234AF0EE0FFF1F1F
S1132CE0BB1F661F771F881F91505040A9F79E3F56
S1132CF0510570F05CCFA6CF5F3FECF3983EDCF358
S1132D00869577956795B795F795E7959F5FC1F792
S1132D10FE2B880F911D9695879597F90895629FCC
S1132D20D001739FF001829FE00DF11D649FE00DBF
S1132D30F11D929FF00D839FF00D749FF00D659F20
S1132D40F00D9927729FB00DE11DF91F639FB00D1F
S1132D50E11DF91FBD01CF0111240895A1E21A2E2E
S1132D60AA1BBB1BFD010DC0AA1FBB1FEE1FFF1F2B
S1132D70A217B307E407F50720F0A21BB30BE40B7B
S1132D80F50B661F771F881F991F1A9469F76095C2
S1132D907095809590959B01AC01BD01CF0108957C
S1132DA0DC0101C06D9341505040E0F70895FC01EF
S1132DB001900020E9F7809590958E0F9F1F08954C
S1132DC0FB0151915523A9F0BF01DC014D91451739
S1132DD04111E1F759F4CD010190002049F04D91E2
S1132DE040154111C9F3FB014111EFCF81E090E09F
S1132DF001970895AEE0B0E0E0E0F7E10C94A91982
S1132E000D891E8986E08C831A8309838FEF9FE7DF
S1132E109E838D839E01275E3F4FCE0101966F896D
S1132E20788DA9010E941E172F813885020F131F68
S1132E30F80110822E96E4E00C94C519ABE0B0E0E2
S1132E40E4E2F7E10C949B193C012B015A01FC01CB
S1132E5017821682838181FD03C06FEF7FEFC6C1A5
S1132E609AE0892E1E010894211C311CF301238150
S1132E70F20123FD859123FF81912F01882309F419
S1132E80B2C1853239F423FD859123FF81912F014D
S1132E90853229F490E0B3010E941119E7CF982FED
S1132EA0FF24EE249924FFE1FF15D0F09B3269F052
S1132EB09C3228F4903259F0933291F40EC09D3232
S1132EC049F0903369F441E024C052E0F52A84E0EB
S1132ED0F82A28C098E0F92A25C0E0E1FE2A22C099
S1132EE0F7FC29C0892F80538A3070F4F6FE05C0A0
S1132EF0989C902C1124980E15C0E89CE02C112469
S1132F00E80EF0E2FF2A0EC09E3229F4F6FC6BC1F3
S1132F1040E4F42A07C09C3619F450E8F52A02C0AC
S1132F20983649F4F20123FD959123FF91912F01E5
S1132F30992309F0B8CF892F8554833018F0805233
S1132F40833038F444E050E0A40EB51E5FE35983A7
S1132F500FC0933631F0933779F0933509F056C0AA
S1132F6020C0F5018081898342E050E0A40EB51EA3
S1132F70610101E010E012C0F501C080D180F6FCCF
S1132F8003C06FEF7FEF02C0692D70E042E050E0B4
S1132F90A40EB51EC6010E9406198C015FE7F52236
S1132FA014C0F501C080D180F6FC03C06FEF7FEF41
S1132FB002C0692D70E042E050E0A40EB51EC601C7
S1132FC00E94FB188C0150E8F52AF3FE07C01AC0D2
S1132FD080E290E0B3010E941119EA948E2D90E0F2
S1132FE008171907A8F30EC0F601F7FC8591F7FE40
S1132FF081916F0190E0B3010E941119E110EA94EC
S1133000015010400115110579F7EAC0943611F00A
S1133010993669F5F7FE08C0F501208131814281B6
S1133020538184E090E00AC0F501808191819C0184
S1133030442737FD4095542F82E090E0A80EB91E36
S11330409FE6F92257FF09C0509540953095219588
S11330503F4F4F4F5F4FE0E8FE2ACA01B901A1017B
S11330602AE030E00E943D19D82ED21840C095378E
S113307029F41F2D1F7E2AE030E01DC01F2D197F6B
S11330809F3661F0903720F4983509F0ACC00FC03A
S1133090903739F0983709F0A6C004C028E030E032
S11330A00AC0106114FD146020E130E004C014FD76
S11330B0166020E132E017FF08C0F50160817181DC
S11330C08281938144E050E008C0F50180819181C0
S11330D0BC0180E090E042E050E0A40EB51EA101E6
S11330E00E943D19D82ED2188FE7F82EF122F6FE51
S11330F00BC05EEFF522D91438F4F4FE07C0F2FCDD
S113310005C08FEEF82202C01D2D01C0192DF4FE5A
S11331100DC0FE01ED0DF11D8081803319F499EE8F
S1133120F92208C01F5FF2FE05C003C08F2D867808
S113313009F01F5F0F2DF3FC14C0F0FE0FC01E1525
S113314010F09D2C0BC09D2C9E0C911A1E2D06C0B8
S113315080E290E0B3010E9411191F5F1E15C0F3B5
S113316004C01E1510F4E11A01C0EE2404FF0FC0C0
S113317080E390E0B3010E94111902FF1DC001FD1C
S113318003C088E790E00EC088E590E00BC0802F74
S1133190867891F001FF02C08BE201C080E2F7FC67
S11331A08DE290E0B3010E94111906C080E390E023
S11331B0B3010E9411199A94D914C0F3DA94F1015D
S11331C0ED0DF11D808190E0B3010E941119DD2005
S11331D0A9F706C080E290E0B3010E941119EA94B5
S11331E0EE20C1F743CEF30166817781CB012B96A4
S11331F0E2E10C94B719FC01059061507040011094
S1133200D8F7809590958E0F9F1F0895FC0161500B
S1133210704001900110D8F7809590958E0F9F1FF4
S113322008950F931F93CF93DF938C01EB018B8150
S113323081FF1BC082FF0DC02E813F818C819D8147
S11332402817390764F4E881F9810193F983E88345
S113325006C0E885F985802F0995892B31F48E8184
S11332609F8101969F838E8302C00FEF1FEFC801D9
S1133270DF91CF911F910F910895FA01AA27283069
S113328051F1203181F1E8946F936E7F6E5F7F4F2F
S11332908F4F9F4FAF4FB1E03ED0B4E03CD0670FAB
S11332A0781F891F9A1FA11D680F791F8A1F911DFE
S11332B0A11D6A0F711D811D911DA11D20D009F44E
S11332C068943F912AE0269F11243019305D319390
S11332D0DEF6CF010895462F4770405D4193B3E079
S11332E00FD0C9F7F6CF462F4F70405D4A3318F020
S11332F0495D31FD4052419302D0A9F7EACFB4E0D1
S1133300A6959795879577956795BA95C9F7009788
S11333106105710508959B01AC010A2E0694579529
S1133320479537952795BA95C9F7620F731F841F80
S1133330951FA01D08952F923F924F925F926F9216
S11333407F928F929F92AF92BF92CF92DF92EF9231
S1133350FF920F931F93CF93DF93CDB7DEB7CA1BB2
S1133360DB0B0FB6F894DEBF0FBECDBF09942A88DD
S1133370398848885F846E847D848C849B84AA8485
S1133380B984C884DF80EE80FD800C811B81AA8112
S1133390B981CE0FD11D0FB6F894DEBF0FBECDBFDD
S10B33A0ED010895F894FFCF3C
S11333A86F6B61006D696430736578790025582006
S11333B80A00004C203A202564202C2052203A2070
S11333C82564202C2061756469656E6365203A2044
S11333D82564200A000074797065202558202C2063
S11333E82558200A000031322E34432E36452E3813
S11333F8420046462E46462E46462E46462E46460B
S11334080025582E0041540D0A00415445300D0A38
S11334180041542B43574D4F44453D310D0A00415B
S1133428542B43574A41503D222573222C2225739D
S1133438220D0A00004E6F204572726F72730A00E3
S11334484861726477617265204572726F720A000E
S11334584563686F204572726F720A005365742061
S11334684D6F6465204572726F720A004E657477F9
S11334786F726B20636F6E6E656374696F6E20453F
S113348872726F720A00436C69656E7420436F6EC2
S11334986E656374204572726F720A004572726FAA
S11334A872205768696C652053656E64696E67207D
S11334B844617461204C656E6774680A00557064D1
S11334C86174652044617465204572726F720A00E4
S11334D850696E67204572726F720A00556E646592
S11334E866696E6564204572726F720A0041542BD6
S11334F843495053544152543D22544350222C22A0
S11335086170692E7468696E67737065616B2E6388
S11335186F6D222C38300D0A0041542B4349505307
S1133528454E443D25640D0A0000474554206874FF
S11335387470733A2F2F6170692E7468696E67739B
S11335487065616B2E636F6D2F7570646174653F70
S11335586170695F6B65793D2573266669656C647E
S1133568313D25645C725C6E486F73743A617069AE
S11335782E7468696E67737065616B2E636F6D0D69
S11335880A0D0A00004A5448573944334A55554BE2
S113359857383038590041542B50494E473D22384A
S11335A82E382E382E38220D0A004F4B002B495046
S10F35B84400434F4E4E454354002B008A
S9030000FC
