S0150000647269766572732D74657374732E73726563B0
S11300000C9434000C9451000C9451000C94510045
S11300100C9451000C94AF010C9451000C945100B9
S11300200C9451000C9451000C9451000C94510008
S11300300C9451000C9451000C947F070C945100C3
S11300400C9451000C9451000C9453000C945100E6
S11300500C9451000C9451000C9451000C945100D8
S11300600C9451000C94510011241FBECFEFD8E022
S1130070DEBFCDBF11E0A0E0B1E0E4EDF8E102C0E5
S113008005900D92AC3DB107D9F713E0ACEDB1E0AA
S113009001C01D92A535B107E1F70E946C000C94D4
S11300A0680C0C9400001F920F920FB60F9211244B
S11300B08F93EF93FF93EDEDF2E001900020E9F7C9
S11300C08091C60031978083FF91EF918F910F90BB
S11300D00FBE0F901F9018952F923F924F925F92F0
S11300E06F927F928F929F92AF92BF92CF92DF9244
S11300F0EF92FF920F931F93DF93CF93CDB7DEB7A9
S113010067970FB6F894DEBF0FBECDBF789480E832
S113011095E20E94ED060E94DE0180E593EC0197D2
S1130120F1F70E947F0180E197E229E130E0F901D3
S11301303197F1F70197D9F70E94F702F82E882337
S113014029F480E091E00E945407FFCF8BE191E015
S11301500E9454078FE291E00E94540700D000D01F
S113016000D0EDB7FEB7319609E012E011830083A9
S113017084E491E093838283F48215820E9490093F
S11301808DB79EB706960FB6F8949EBF0FBE8DBF6F
S1130190C8010E945407E4E2F0E08081816080831A
S11301A00F2EFAE44F2EF1E05F2EF02D0F2EF6E025
S11301B08F2E9924F02D8C0E9D1E0F2EF1ED2F2ED7
S11301C0F2E03F2EF02D8EE991E08E8B9F8B0F2E67
S11301D0F5E2AF2EBB24F02D0F2EF0E16F2EF7E2E7
S11301E07F2EF02D09E110E0C2010E94540786E23F
S11301F0B4010E94C304882309F06AC082E691E036
S11302000E945407EDB7FEB738970FB6F894FEBFB7
S11302100FBEEDBF319689E092E09183808381E740
S113022091E0938382838E81848315828F81868378
S113023017820E949009EDB7FEB738960FB6F8946E
S1130240FEBF0FBEEDBF89E092E00E945407C401D7
S11302500E94AE05DE011196F40185E001900D9235
S11302608150E1F781E891E00E945407CE010196A4
S113027064E0A1010E942206C1010E9454078091FA
S1130280DB01882319F10F2EF7EDCF2EF1E0DF2EDD
S1130290F02DEE24FF24F60160817181C1010E94DA
S11302A08709282F392F232B21F48E899F890E94B7
S11302B054070894E11CF11C82E090E0C80ED91E9A
S11302C08091DB0190E0E816F9062CF30E9470059A
S11302D0F5018081816080839301C8010197F1F762
S11302E021503040D1F7F50180818E7F80839301C6
S11302F0C8010197F1F721503040D1F775CFDF9352
S1130300CF93CDB7DEB7AAE2B0E0EAE2F0E08081B5
S11303108F778C93A4E2B0E0E4E2F0E08081806423
S11303208C93A5E2B0E0E5E2F0E0808180648C93F8
S1130330E8E6F0E084E08083EDE6F0E080E88083A6
S11303407894CF91DF910895DF93CF93CDB7DEB743
S11303508EEC91E00E945407CF91DF9108951F9293
S11303600F920FB60F9211242F933F934F935F93E5
S11303706F937F938F939F93AF93BF93EF93FF9369
S1130380DF93CF93CDB7DEB7E9E2F0E08081882335
S113039014F40E94A401CF91DF91FF91EF91BF91DA
S11303A0AF919F918F917F916F915F914F913F9109
S11303B02F910F900FBE0F901F901895DF93CF933E
S11303C0CDB7DEB72E970FB6F894DEBF0FBECDBF04
S11303D00E94B606A5E2B0E0E5E2F0E08081846028
S11303E08C93A4E2B0E0E4E2F0E0808182608C933C
S11303F0A5E2B0E0E5E2F0E0808182608C9380E0E9
S113040090E0A8ECB2E48B879C87AD87BE876B85B0
S11304107C858D859E8520E030E04AE753E40E9488
S1130420DA08DC01CB018F839887A987BA876F81AB
S1130430788589859A8520E030E040E85FE30E9472
S1130440590888232CF481E090E09E838D833FC07B
S11304506F81788589859A8520E03FEF4FE757E4DF
S11304600E94D60818164CF56B857C858D859E8573
S113047020E030E040E251E40E94DA08DC01CB01E4
S1130480BC01CD010E945D08DC01CB019E838D83FC
S11304900FC089E190E09C838B838B819C810197C1
S11304A0F1F79C838B838D819E8101979E838D833D
S11304B08D819E81009769F714C06F817885898545
S11304C09A850E945D08DC01CB019E838D838D811A
S11304D09E819A83898389819A810197F1F79A830E
S11304E08983A5E2B0E0E5E2F0E0808184608C934A
S11304F00E94EC028AE26DE80E949F028BE26EE3A6
S11305000E949F028DE26EE10E949F028CE260E0F5
S11305100E949F0285E160E40E949F0281E16DE3F5
S11305200E949F0284E163E00E9405032E960FB6A9
S1130530F894DEBF0FBECDBFCF91DF910895DF9356
S1130540CF9300D0CDB7DEB789836A83A5E2B0E04C
S1130550E5E2F0E080818B7F8C938981882F90E0A5
S1130560880F991F8E770E94D6068A810E94D6062C
S1130570A5E2B0E0E5E2F0E0808184608C930F9026
S11305800F90CF91DF910895DF93CF9300D0CDB733
S1130590DEB78A83A5E2B0E0E5E2F0E080818B7FFC
S11305A08C938A81882F90E0880F991F8E778068BA
S11305B00E94D606898380E00E94D6068983A5E23C
S11305C0B0E0E5E2F0E0808184608C9389810F9053
S11305D00F90CF91DF910895DF93CF93CDB7DEB71E
S11305E081E06FE00E949F02CF91DF910895DF9335
S11305F0CF930F92CDB7DEB787E30E94C4028983FD
S113060089810F90CF91DF910895DF93CF9300D02C
S11306100F92CDB7DEB78A836B838A810E94C402AE
S1130620898399818B81892B89838A8169810E943D
S11306309F020F900F900F90CF91DF910895DF9359
S1130640CF9300D00F92CDB7DEB78A836B838A81B4
S11306500E94C40289838B81982F90958981892374
S113066089838A8169810E949F020F900F900F9065
S1130670CF91DF9108950F931F93DF93CF93CDB75D
S1130680DEB7A1970FB6F894DEBF0FBECDBF8F8B38
S1130690798F688F5B8F4A8F3D8F2C8F1F8F0E8FC2
S11306A082E090E09E8B8D8B1C8A1B8A8F89282F79
S11306B030E039A328A388A199A18C30910551F089
S11306C0E8A1F9A1EE30F10549F482E18C8B80E1D7
S11306D08B8B04C087E78C8B80E38B8B8C89982F62
S11306E0906882E0692F0E949F0284E060E80E9483
S11306F01F038AE060E80E94050381E060E00E9435
S11307009F02188A1F8611C02F853889888D998D7C
S1130710FC01E20FF31F908189E0692F0E949F0280
S11307208F8598890196988B8F872F8538898A8D34
S11307309B8D2817390744F381E06F890E949F023B
S11307408F898C3021F48DE060E80E94050389E1F3
S113075090E0988B8F8780E090E0A0E8BFE38B87E0
S11307609C87AD87BE876B857C858D859E8520E0C3
S113077030E04AE753E40E94DA08DC01CB018F83BE
S11307809887A987BA876F81788589859A8520E0BB
S113079030E040E85FE30E94590888232CF481E0AC
S11307A090E09E838D833FC06F81788589859A858B
S11307B020E03FEF4FE757E40E94D60818164CF5A7
S11307C06B857C858D859E8520E030E040E251E498
S11307D00E94DA08DC01CB01BC01CD010E945D0856
S11307E0DC01CB019E838D830FC089E190E09C8363
S11307F08B838B819C810197F1F79C838B838D8103
S11308009E8101979E838D838D819E81009769F7D8
S113081014C06F81788589859A850E945D08DC0102
S1130820CB019E838D838D819E819A838983898167
S11308309A810197F1F79A83898384E00E94C40224
S1130840898B8F8598890197988B8F878F85988955
S1130850009769F08989882F90E0817090700097E3
S113086031F489899B898923882309F474CF8DE025
S113087060E80E941F038F859889009709F476C069
S113088086E00E94C402882F90E08B7190700097DC
S113089009F068C01E8A1D8A99898C898923882F4A
S11308A090E081709070882321F081E090E09E8B2D
S11308B08D8B8F898C3009F059C08AE00E94C40264
S11308C0898B8CE00E94C40287708A8B8A89882372
S11308D0A9F08989882F90E001979C01220F331F8A
S11308E0220F331F220F331F8A89882F90E0820F33
S11308F0931FEE8DFF8D918380830DC08989882F8E
S113090090E0880F991F880F991F880F991FEE8D0B
S1130910FF8D918380838989882311F481E0898BF9
S11309208989813110F080E1898B188A1F8611C072
S11309302F8538898C8D9D8D8C01020F131F89E0C2
S11309400E94C402F80180838F8598890196988B50
S11309508F878989282F30E08F859889821793079C
S11309603CF304C082E090E09E8B8D8B8D899E8940
S1130970A1960FB6F894DEBF0FBECDBFCF91DF9125
S11309801F910F9108950F931F93DF93CF93CDB7CA
S1130990DEB727970FB6F894DEBF0FBECDBF8D83A9
S11309A07F836E838DE067E00E949F02EE81FF816A
S11309B08D8180832E813F81EE81FF81DE0113963C
S11309C08CE0B90141E050E09F018D010E943B039E
S11309D09A83898389819A81009729F48B819C81E8
S11309E08031910521F082E090E09A8389838981A6
S11309F09A8127960FB6F894DEBF0FBECDBFCF9174
S1130A00DF911F910F9108950F931F93DF93CF935D
S1130A10CDB7DEB729970FB6F894DEBF0FBECDBFB2
S1130A209D838C837F836E835987488785E064E048
S1130A300E941F038AE060E80E9405031B821A8259
S1130A4011C02A813B818C819D81FC01E20FF31F3F
S1130A50908189E0692F0E949F028A819B8101967F
S1130A609B838A832A813B818E819F812817390742
S1130A7044F381E063E00E949F028FEF90E09B8348
S1130A808A8385E00E94C40289838A819B810197BD
S1130A909B838A838A819B81009739F08981882F7F
S1130AA090E084709070009761F382E20E94C40227
S1130AB0E885F9858083888599858C010F5F1F4FB0
S1130AC081E20E94C402F801808329960FB6F8944B
S1130AD0DEBF0FBECDBFCF91DF911F910F9108955F
S1130AE00F931F93DF93CF93CDB7DEB728970FB63D
S1130AF0F894DEBF0FBECDBF80E58D831E829E01BC
S1130B002B5F3F4FCE010596AC014E5F5F4FC9018D
S1130B1062E070E00E94040588E068E00E941F0320
S1130B209E012B5F3F4FFE013596DE0113968CE04C
S1130B30B90144E050E09F018D010E943B039A8378
S1130B40898389819A8128960FB6F894DEBF0FBEF7
S1130B50CDBFCF91DF911F910F9108950F931F93F4
S1130B60DF93CF93CDB7DEB729970FB6F894DEBFE6
S1130B700FBECDBF9987888719828DE060E00E94FF
S1130B809F02E885F98583E9808388859985FC013E
S1130B90319680E28083DE01169628853985E885C2
S1130BA0F9858CE0B90142E050E09F018D010E947B
S1130BB03B039D838C838E819F8196958795969523
S1130BC08795969587959F838E838C819D810097C9
S1130BD061F51B821A8210C0288539858A819B8120
S1130BE0F901E80FF91F90818981892789838A8116
S1130BF09B8101969B838A838E819F819C012150D6
S1130C0030408A819B818217930730F32885398588
S1130C108A819B81F901E80FF91F908189819817D6
S1130C2021F082E090E09D838C838C819D812996C4
S1130C300FB6F894DEBF0FBECDBFCF91DF911F91E9
S1130C400F910895DF93CF93CDB7DEB72E970FB6EC
S1130C50F894DEBF0FBECDBF9D838C836E8358870F
S1130C604F832DB73EB73E872D878DB79EB79A87A2
S1130C7089878E81882F90E001962DB73EB7281B77
S1130C80390B0FB6F8943EBF0FBE2DBF8DB79EB77C
S1130C9001969C878B878B859C8500969C878B8788
S1130CA02B853C853B832A83198232C04F8158852A
S1130CB08981282F30E0C901880F991F820F931F63
S1130CC0480F591F8981282F30E08C819D81FC01B8
S1130CD0E20FF31F8081282F30E000D000D000D035
S1130CE0EDB7FEB731965183408383ED91E0938352
S1130CF08283358324830E9490098DB79EB706961C
S1130D000FB6F8949EBF0FBE8DBF89818F5F898314
S1130D1099818E81981750F28981282F30E0C9017A
S1130D20880F991F820F931F815089838981282FEF
S1130D3030E08F819885FC01E20FF31F1082298532
S1130D403A850FB6F8943EBF0FBE2DBF8D859E85A4
S1130D500FB6F8949EBF0FBE8DBF2E960FB6F894B3
S1130D60DEBF0FBECDBFCF91DF910895DF93CF9348
S1130D70CDB7DEB7A4E2B0E0E4E2F0E080818460C5
S1130D808C93ECE4F0E080E18083ACE4B0E0ECE44C
S1130D90F0E0808180648C93A4E2B0E0E4E2F0E0CF
S1130DA080818C628C93CF91DF910895DF93CF93F0
S1130DB00F92CDB7DEB78983EEE4F0E089818083BA
S1130DC00000EDE4F0E080818823DCF7EEE4F0E05D
S1130DD080810F90CF91DF910895DF93CF9300D05E
S1130DE000D0CDB7DEB79C838B838B819C81CC01F3
S1130DF0A0E0B0E0880F991FAA1FBB1F880F991F9E
S1130E00AA1FBB1F880F991FAA1FBB1F880F991FFA
S1130E10AA1FBB1F9C01AD0180E092E1AAE7B0E0EC
S1130E20BC01CD010E946509DA01C90101979A83C9
S1130E308983E5ECF0E089819A81892F9927808361
S1130E40E4ECF0E089818083E2ECF0E086E08083EA
S1130E50A1ECB0E0E1ECF0E0808180688C93A1EC3F
S1130E60B0E0E1ECF0E0808188618C930F900F900A
S1130E700F900F90CF91DF910895DF93CF930F924E
S1130E80CDB7DEB78983E0ECF0E08081882F90E075
S1130E90807290700097B9F3E6ECF0E0898180836A
S1130EA00F90CF91DF910895DF93CF9300D000D0BE
S1130EB0CDB7DEB79C838B831A8219820FC0298138
S1130EC03A818B819C81FC01E20FF31F80810E9497
S1130ED03D0789819A8101969A83898329813A8180
S1130EE08B819C81FC01E20FF31F8081882339F7F9
S1130EF00F900F900F900F90CF91DF9108951F9254
S1130F000F920FB60F9211242F933F938F939F93B9
S1130F10AF93BF93EF93FF93DF93CF9300D00F92E0
S1130F20CDB7DEB7809104028130D1F580910502FE
S1130F3089838981815089838981882371F580918E
S1130F4007029091080281709070882341F0A8E212
S1130F50B0E0E8E2F0E0808182608C9307C0A8E210
S1130F60B0E0E8E2F0E080818D7F8C93809107020D
S1130F7090910802969587959093080280930702B2
S1130F8083E08983809106028150809306028091D8
S1130F900602882311F410920402898180930502C9
S1130FA080910202882309F072C08091E0018823B5
S1130FB029F18091DE0181508093DE018091DE0170
S1130FC0882309F064C01092E0011092030280911A
S1130FD00102282F30E08091DC01F901EF51FE4F2E
S1130FE08083809101028F5F8093010280910102CE
S1130FF0803208F44CC01092010249C0809103026F
S11310008823B9F4E6E2F0E0808181708B838B81E0
S11310108823E9F581E0809303021092DC0184E0E7
S11310208093DE0188E08093DD0181E08093DF011D
S11310302EC08091DE0189838981815089838981D1
S1131040882311F583E08983E6E2F0E080818170F2
S11310508A838A81882339F08091DC019091DF01B1
S1131060892B8093DC018091DF01880F8093DF015D
S11310708091DD0181508093DD018091DD01882321
S113108019F481E08093E00189818093DE010F905F
S11310900F900F90CF91DF91FF91EF91BF91AF919E
S11310A09F918F913F912F910F900FBE0F901F90A2
S11310B018952FD008F481E0089557D088F09F57F1
S11310C090F0B92F9927B751A0F0D1F0660F771F90
S11310D0881F991F1AF0BA95C9F712C0B13081F070
S11310E05ED0B1E008955BC0672F782F8827B85F82
S11310F039F0B93FCCF3869577956795B395D9F7D1
S11311003EF490958095709561957F4F8F4F9F4FDA
S11311100895990F0008550FAA0BE0E8FEEF161684
S11311201706E807F907C0F012161306E407F507D7
S113113098F0621B730B840B950B39F40A2661F04B
S1131140232B242B252B21F408950A2609F4A140EE
S1131150A6958FEF811D811D089557FD9058440F6A
S1131160551F59F05F3F71F04795880F97FB991F02
S113117061F09F3F79F087950895121613061406BF
S1131180551FF2CF4695F1DF08C01616170618064C
S1131190991FF1CF86957105610508940895E89427
S11311A0BB2766277727CB0197F90895B2DF08F4A8
S11311B08FEF08950BD078C069D028F06ED018F066
S11311C0952309F05AC05FC01124EACFC6DFA0F30B
S11311D0959FD1F3950F50E0551F629FF001729FC8
S11311E0BB27F00DB11D639FAA27F00DB11DAA1FE7
S11311F0649F6627B00DA11D661F829F2227B00D34
S1131200A11D621F739FB00DA11D621F839FA00DBE
S1131210611D221F749F3327A00D611D231F849F0E
S1131220600D211D822F762F6A2F11249F57504065
S11312308AF0E1F088234AF0EE0FFF1FBB1F661F00
S1131240771F881F91505040A9F79E3F510570F0B9
S113125014C0A6CF5F3FECF3983EDCF386957795F8
S11312606795B795F795E7959F5FC1F7FE2B880FB4
S1131270911D9695879597F9089597F99F6780E84A
S113128070E060E008959FEF80EC089500240A94D4
S11312901616170618060906089500240A9412164D
S11312A01306140605060895092E0394000C11F480
S11312B0882352F0BB0F40F4BF2B11F460FF04C02D
S11312C06F5F7F4F8F4F9F4F0895A1E21A2EAA1B85
S11312D0BB1BFD010DC0AA1FBB1FEE1FFF1FA217E2
S11312E0B307E407F50720F0A21BB30BE40BF50BDF
S11312F0661F771F881F991F1A9469F76095709568
S1131300809590959B01AC01BD01CF010895FB012F
S1131310DC018D91019080190110D9F3990B089586
S1131320AEE0B0E0E6E9F9E00C943F0C0D891E89CB
S113133086E08C831A8309838FEF9FE79E838D83D6
S11313409E01275E3F4FCE0101966F89788DA901DA
S11313500E94B4092F813885020F131FF8011082EF
S11313602E96E4E00C945B0CABE0B0E0EAEBF9E021
S11313700C94310C3C012B015A01FC01178216829A
S1131380838181FD03C06FEF7FEFC6C19AE0892E90
S11313901E010894211C311CF3012381F20123FD59
S11313A0859123FF81912F01882309F4B2C18532ED
S11313B039F423FD859123FF81912F01853229F48E
S11313C090E0B3010E94A70BE7CF982FFF24EE24EF
S11313D09924FFE1FF15D0F09B3269F09C3228F488
S11313E0903259F0933291F40EC09D3249F090330B
S11313F069F441E024C052E0F52A84E0F82A28C0C8
S113140098E0F92A25C0E0E1FE2A22C0F7FC29C0B1
S1131410892F80538A3070F4F6FE05C0989C902C76
S11314201124980E15C0E89CE02C1124E80EF0E27B
S1131430FF2A0EC09E3229F4F6FC6BC140E4F42A64
S113144007C09C3619F450E8F52A02C0983649F4CE
S1131450F20123FD959123FF91912F01992309F026
S1131460B8CF892F8554833018F08052833038F4F4
S113147044E050E0A40EB51E5FE359830FC09336D9
S113148031F0933779F0933509F056C020C0F50157
S11314908081898342E050E0A40EB51E610101E021
S11314A010E012C0F501C080D180F6FC03C06FEFDC
S11314B07FEF02C0692D70E042E050E0A40EB51E3B
S11314C0C6010E949C0B8C015FE7F52214C0F50154
S11314D0C080D180F6FC03C06FEF7FEF02C0692D9E
S11314E070E042E050E0A40EB51EC6010E94910BCC
S11314F08C0150E8F52AF3FE07C01AC080E290E0A0
S1131500B3010E94A70BEA948E2D90E008171907E7
S1131510A8F30EC0F601F7FC8591F7FE81916F01E7
S113152090E0B3010E94A70BE110EA94015010402F
S11315300115110579F7EAC0943611F0993669F569
S1131540F7FE08C0F501208131814281538184E096
S113155090E00AC0F501808191819C01442737FD08
S11315604095542F82E090E0A80EB91E9FE6F92220
S113157057FF09C050954095309521953F4F4F4FE7
S11315805F4FE0E8FE2ACA01B901A1012AE030E078
S11315900E94D30BD82ED21840C0953729F41F2DA2
S11315A01F7E2AE030E01DC01F2D197F9F3661F099
S11315B0903720F4983509F0ACC00FC0903739F05B
S11315C0983709F0A6C004C028E030E00AC01061D2
S11315D014FD146020E130E004C014FD166020E125
S11315E032E017FF08C0F501608171818281938127
S11315F044E050E008C0F50180819181BC0180E0A5
S113160090E042E050E0A40EB51EA1010E94D30B6D
S1131610D82ED2188FE7F82EF122F6FE0BC05EEF1B
S1131620F522D91438F4F4FE07C0F2FC05C08FEE9D
S1131630F82202C01D2D01C0192DF4FE0DC0FE01BB
S1131640ED0DF11D8081803319F499EEF92208C063
S11316501F5FF2FE05C003C08F2D867809F01F5F5F
S11316600F2DF3FC14C0F0FE0FC01E1510F09D2CBE
S11316700BC09D2C9E0C911A1E2D06C080E290E09A
S1131680B3010E94A70B1F5F1E15C0F304C01E15F3
S113169010F4E11A01C0EE2404FF0FC080E390E0CF
S11316A0B3010E94A70B02FF1DC001FD03C088E720
S11316B090E00EC088E590E00BC0802F867891F012
S11316C001FF02C08BE201C080E2F7FC8DE290E0F2
S11316D0B3010E94A70B06C080E390E0B3010E940F
S11316E0A70B9A94D914C0F3DA94F101ED0DF11D0E
S11316F0808190E0B3010E94A70BDD20A9F706C00A
S113170080E290E0B3010E94A70BEA94EE20C1F7B7
S113171043CEF30166817781CB012B96E2E10C94F1
S11317204D0CFC010590615070400110D8F7809574
S113173090958E0F9F1F0895FC0161507040019099
S11317400110D8F7809590958E0F9F1F08950F93E1
S11317501F93CF93DF938C01EB018B8181FF1BC01F
S113176082FF0DC02E813F818C819D81281739070E
S113177064F4E881F9810193F983E88306C0E8857C
S1131780F985802F0995892B31F48E819F810196EB
S11317909F838E8302C00FEF1FEFC801DF91CF91AB
S11317A01F910F910895FA01AA27283051F1203191
S11317B081F1E8946F936E7F6E5F7F4F8F4F9F4FE1
S11317C0AF4FB1E03ED0B4E03CD0670F781F891F23
S11317D09A1FA11D680F791F8A1F911DA11D6A0FF1
S11317E0711D811D911DA11D20D009F468943F91A4
S11317F02AE0269F11243019305D3193DEF6CF01A3
S11318000895462F4770405D4193B3E00FD0C9F768
S1131810F6CF462F4F70405D4A3318F0495D31FDD5
S11318204052419302D0A9F7EACFB4E0A695979528
S1131830879577956795BA95C9F7009761057105FE
S113184008959B01AC010A2E069457954795379548
S11318502795BA95C9F7620F731F841F951FA01DA2
S113186008952F923F924F925F926F927F928F9240
S11318709F92AF92BF92CF92DF92EF92FF920F931B
S11318801F93CF93DF93CDB7DEB7CA1BDB0B0FB625
S1131890F894DEBF0FBECDBF09942A8839884888E2
S11318A05F846E847D848C849B84AA84B984C88478
S11318B0DF80EE80FD800C811B81AA81B981CE0F6F
S11318C0D11D0FB6F894DEBF0FBECDBFED01089554
S10718D0F894FFCFB6
S11318D44469646E27742066696E64204D465243DD
S11318E435323220626F6172642E00466F756E6405
S11318F42063686970204D4652433532320A0066CB
S113190469726D776172652076657273696F6E2092
S1131914697320002558200A00007363616E6E6E9B
S1131924696720666F722074616773202E2E2E20DF
S11319340A00746167206465746563746564200ACD
S11319440074797065202558202C202558200A001D
S1131954005468652073657269616C206E62206F3F
S11319646620746865207461672069733A000A61AB
S1131974757468656E7469636174656420757365F0
S1131984720A0031322E34432E36452E3842004634
S1131994462E46462E46462E46462E4646000A4FB8
S10F19A44E0A0025582E00B301BF0102BA
S9030000FC
